{
  "contractName": "FedLearning",
  "abi": [
    {
      "inputs": [],
      "stateMutability": "nonpayable",
      "type": "constructor"
    },
    {
      "inputs": [
        {
          "internalType": "address",
          "name": "",
          "type": "address"
        }
      ],
      "name": "hasVoted",
      "outputs": [
        {
          "internalType": "bool",
          "name": "",
          "type": "bool"
        }
      ],
      "stateMutability": "view",
      "type": "function",
      "constant": true
    },
    {
      "inputs": [
        {
          "internalType": "address",
          "name": "",
          "type": "address"
        }
      ],
      "name": "isRegistered",
      "outputs": [
        {
          "internalType": "bool",
          "name": "",
          "type": "bool"
        }
      ],
      "stateMutability": "view",
      "type": "function",
      "constant": true
    },
    {
      "inputs": [
        {
          "internalType": "address",
          "name": "x",
          "type": "address"
        },
        {
          "internalType": "string",
          "name": "y",
          "type": "string"
        }
      ],
      "name": "sendWeights",
      "outputs": [],
      "stateMutability": "nonpayable",
      "type": "function"
    },
    {
      "inputs": [
        {
          "internalType": "string",
          "name": "serverHash",
          "type": "string"
        }
      ],
      "name": "setServer",
      "outputs": [
        {
          "internalType": "bool",
          "name": "",
          "type": "bool"
        }
      ],
      "stateMutability": "nonpayable",
      "type": "function"
    },
    {
      "inputs": [],
      "name": "getServer",
      "outputs": [
        {
          "internalType": "string",
          "name": "",
          "type": "string"
        }
      ],
      "stateMutability": "view",
      "type": "function",
      "constant": true
    },
    {
      "inputs": [
        {
          "internalType": "address",
          "name": "a",
          "type": "address"
        }
      ],
      "name": "getWeights",
      "outputs": [
        {
          "internalType": "string",
          "name": "",
          "type": "string"
        }
      ],
      "stateMutability": "view",
      "type": "function",
      "constant": true
    },
    {
      "inputs": [
        {
          "internalType": "address",
          "name": "voter",
          "type": "address"
        },
        {
          "internalType": "uint256",
          "name": "acc",
          "type": "uint256"
        }
      ],
      "name": "vote",
      "outputs": [],
      "stateMutability": "payable",
      "type": "function",
      "payable": true
    },
    {
      "inputs": [],
      "name": "getVoteUpdate",
      "outputs": [
        {
          "internalType": "bool",
          "name": "",
          "type": "bool"
        }
      ],
      "stateMutability": "view",
      "type": "function",
      "constant": true
    }
  ],
  "bytecode": "0x608060405234801561001057600080fd5b506000600281905550600060018190555060006006819055506000600781905550610dc0806100406000396000f3fe60806040526004361061007b5760003560e01c80635f74bbde1161004e5780635f74bbde1461014e5780638ad6ad421461016a578063a9ded35e146101a7578063c3c5a547146101d25761007b565b8063089587cd1461008057806309eef43e146100ab5780632a58e270146100e85780632ac50af014610111575b600080fd5b34801561008c57600080fd5b5061009561020f565b6040516100a291906106d3565b60405180910390f35b3480156100b757600080fd5b506100d260048036038101906100cd9190610767565b6102a1565b6040516100df91906107af565b60405180910390f35b3480156100f457600080fd5b5061010f600480360381019061010a91906108ff565b6102c1565b005b34801561011d57600080fd5b5061013860048036038101906101339190610767565b6103dc565b60405161014591906106d3565b60405180910390f35b61016860048036038101906101639190610991565b6104ad565b005b34801561017657600080fd5b50610191600480360381019061018c91906109d1565b6105c8565b60405161019e91906107af565b60405180910390f35b3480156101b357600080fd5b506101bc6105e3565b6040516101c991906107af565b60405180910390f35b3480156101de57600080fd5b506101f960048036038101906101f49190610767565b610623565b60405161020691906107af565b60405180910390f35b60606000805461021e90610a49565b80601f016020809104026020016040519081016040528092919081815260200182805461024a90610a49565b80156102975780601f1061026c57610100808354040283529160200191610297565b820191906000526020600020905b81548152906001019060200180831161027a57829003601f168201915b5050505050905090565b60056020528060005260406000206000915054906101000a900460ff1681565b80600360008473ffffffffffffffffffffffffffffffffffffffff1673ffffffffffffffffffffffffffffffffffffffff168152602001908152602001600020908161030d9190610c26565b506001600460008473ffffffffffffffffffffffffffffffffffffffff1673ffffffffffffffffffffffffffffffffffffffff16815260200190815260200160002060006101000a81548160ff0219169083151502179055506000600560008473ffffffffffffffffffffffffffffffffffffffff1673ffffffffffffffffffffffffffffffffffffffff16815260200190815260200160002060006101000a81548160ff0219169083151502179055506001600260008282546103d19190610d27565b925050819055505050565b6060600360008373ffffffffffffffffffffffffffffffffffffffff1673ffffffffffffffffffffffffffffffffffffffff168152602001908152602001600020805461042890610a49565b80601f016020809104026020016040519081016040528092919081815260200182805461045490610a49565b80156104a15780601f10610476576101008083540402835291602001916104a1565b820191906000526020600020905b81548152906001019060200180831161048457829003601f168201915b50505050509050919050565b60011515600460008473ffffffffffffffffffffffffffffffffffffffff1673ffffffffffffffffffffffffffffffffffffffff16815260200190815260200160002060009054906101000a900460ff1615151461050e5761050d610d5b565b5b627270e08111156105385760016006600082825461052c9190610d27565b92505081905550610553565b60016007600082825461054b9190610d27565b925050819055505b6001600560008473ffffffffffffffffffffffffffffffffffffffff1673ffffffffffffffffffffffffffffffffffffffff16815260200190815260200160002060006101000a81548160ff02191690831515021790555060018060008282546105bd9190610d27565b925050819055505050565b600081600090816105d99190610c26565b5060019050919050565b60006001546007546006546105f89190610d27565b1461060657610605610d5b565b5b600754600654111561061b5760019050610620565b600090505b90565b60046020528060005260406000206000915054906101000a900460ff1681565b600081519050919050565b600082825260208201905092915050565b60005b8381101561067d578082015181840152602081019050610662565b60008484015250505050565b6000601f19601f8301169050919050565b60006106a582610643565b6106af818561064e565b93506106bf81856020860161065f565b6106c881610689565b840191505092915050565b600060208201905081810360008301526106ed818461069a565b905092915050565b6000604051905090565b600080fd5b600080fd5b600073ffffffffffffffffffffffffffffffffffffffff82169050919050565b600061073482610709565b9050919050565b61074481610729565b811461074f57600080fd5b50565b6000813590506107618161073b565b92915050565b60006020828403121561077d5761077c6106ff565b5b600061078b84828501610752565b91505092915050565b60008115159050919050565b6107a981610794565b82525050565b60006020820190506107c460008301846107a0565b92915050565b600080fd5b600080fd5b7f4e487b7100000000000000000000000000000000000000000000000000000000600052604160045260246000fd5b61080c82610689565b810181811067ffffffffffffffff8211171561082b5761082a6107d4565b5b80604052505050565b600061083e6106f5565b905061084a8282610803565b919050565b600067ffffffffffffffff82111561086a576108696107d4565b5b61087382610689565b9050602081019050919050565b82818337600083830152505050565b60006108a261089d8461084f565b610834565b9050828152602081018484840111156108be576108bd6107cf565b5b6108c9848285610880565b509392505050565b600082601f8301126108e6576108e56107ca565b5b81356108f684826020860161088f565b91505092915050565b60008060408385031215610916576109156106ff565b5b600061092485828601610752565b925050602083013567ffffffffffffffff81111561094557610944610704565b5b610951858286016108d1565b9150509250929050565b6000819050919050565b61096e8161095b565b811461097957600080fd5b50565b60008135905061098b81610965565b92915050565b600080604083850312156109a8576109a76106ff565b5b60006109b685828601610752565b92505060206109c78582860161097c565b9150509250929050565b6000602082840312156109e7576109e66106ff565b5b600082013567ffffffffffffffff811115610a0557610a04610704565b5b610a11848285016108d1565b91505092915050565b7f4e487b7100000000000000000000000000000000000000000000000000000000600052602260045260246000fd5b60006002820490506001821680610a6157607f821691505b602082108103610a7457610a73610a1a565b5b50919050565b60008190508160005260206000209050919050565b60006020601f8301049050919050565b600082821b905092915050565b600060088302610adc7fffffffffffffffffffffffffffffffffffffffffffffffffffffffffffffffff82610a9f565b610ae68683610a9f565b95508019841693508086168417925050509392505050565b6000819050919050565b6000610b23610b1e610b198461095b565b610afe565b61095b565b9050919050565b6000819050919050565b610b3d83610b08565b610b51610b4982610b2a565b848454610aac565b825550505050565b600090565b610b66610b59565b610b71818484610b34565b505050565b5b81811015610b9557610b8a600082610b5e565b600181019050610b77565b5050565b601f821115610bda57610bab81610a7a565b610bb484610a8f565b81016020851015610bc3578190505b610bd7610bcf85610a8f565b830182610b76565b50505b505050565b600082821c905092915050565b6000610bfd60001984600802610bdf565b1980831691505092915050565b6000610c168383610bec565b9150826002028217905092915050565b610c2f82610643565b67ffffffffffffffff811115610c4857610c476107d4565b5b610c528254610a49565b610c5d828285610b99565b600060209050601f831160018114610c905760008415610c7e578287015190505b610c888582610c0a565b865550610cf0565b601f198416610c9e86610a7a565b60005b82811015610cc657848901518255600182019150602085019450602081019050610ca1565b86831015610ce35784890151610cdf601f891682610bec565b8355505b6001600288020188555050505b505050505050565b7f4e487b7100000000000000000000000000000000000000000000000000000000600052601160045260246000fd5b6000610d328261095b565b9150610d3d8361095b565b9250828201905080821115610d5557610d54610cf8565b5b92915050565b7f4e487b7100000000000000000000000000000000000000000000000000000000600052600160045260246000fdfea26469706673582212203b81852559f262a5ac269da1218a0cc499dae786a6895466a559f5ba1c00af4264736f6c63430008110033",
  "immutableReferences": {},
  "source": "// SPDX-License-Identifier: MIT\r\npragma solidity >=0.4.22 <0.9.0;\r\npragma experimental ABIEncoderV2;\r\n\r\nimport \"./flockie.sol\";\r\n\r\ncontract FedLearning{\r\n    string server;\r\n    // string public test = \"Hello\";\r\n    uint voterCount;\r\n    uint clientCount;\r\n    mapping(address => string) clientWeights;\r\n\r\n    mapping(address => bool) public isRegistered;\r\n    mapping(address => bool) public hasVoted;\r\n\r\n    uint update; \r\n    uint noUpdate;\r\n\r\n    constructor() {\r\n        // Initilizing default values\r\n        clientCount = 0;\r\n        voterCount = 0;\r\n        update = 0;\r\n        noUpdate = 0;\r\n    }\r\n\r\n    function sendWeights(address x, string memory y) public {\r\n        clientWeights[x] = y;\r\n        isRegistered[x] = true;\r\n        hasVoted[x] = false;\r\n        clientCount += 1;\r\n    }\r\n\r\n    function setServer(string memory serverHash) public returns(bool){\r\n        server = serverHash;\r\n        return true;\r\n    }\r\n\r\n\r\n    function getServer() public view returns(string memory){\r\n        return server;\r\n        // return test;\r\n    }\r\n\r\n    function getWeights(address a) public view returns(string memory){\r\n        // assert(msg.sender == a);\r\n        return clientWeights[a];\r\n    }    \r\n\r\n    function vote(address voter, uint acc) public payable {\r\n        assert(isRegistered[voter]==true); //voter == msg.sender\r\n        if(acc > 7500000){\r\n            update += 1;\r\n        }\r\n        else{\r\n            noUpdate += 1;\r\n        }\r\n        hasVoted[voter] = true;\r\n        voterCount += 1;\r\n    }\r\n\r\n    function getVoteUpdate() public view returns(bool){\r\n        assert(update + noUpdate == voterCount);\r\n        if(update > noUpdate){\r\n            return true;\r\n        }\r\n        return false;\r\n        // return true;\r\n    }\r\n\r\n    // function accuracyChecker(string memory z, uint acc) public returns (bool){\r\n    //     if(acc > 8000000){\r\n    //         server = z;\r\n    //         return true;\r\n    //     }\r\n    //     return false;\r\n    // }    \r\n\r\n\r\n}",
  "sourcePath": "E:\\Fed-Block\\contracts\\fedLearning.sol",
  "compiler": {
    "name": "solc",
    "version": "0.8.17+commit.8df45f5f.Emscripten.clang"
  },
  "schemaVersion": "3.4.16",
  "updatedAt": "2023-11-01T04:21:59.194Z",
  "networkType": "ethereum",
  "devdoc": {
    "kind": "dev",
    "methods": {},
    "version": 1
  },
  "userdoc": {
    "kind": "user",
    "methods": {},
    "version": 1
  }
}