{
  "contractName": "FedLearning",
  "abi": [
    {
      "inputs": [],
      "stateMutability": "nonpayable",
      "type": "constructor"
    },
    {
      "inputs": [
        {
          "internalType": "address",
          "name": "x",
          "type": "address"
        },
        {
          "internalType": "string",
          "name": "y",
          "type": "string"
        }
      ],
      "name": "sendWeights",
      "outputs": [],
      "stateMutability": "nonpayable",
      "type": "function"
    },
    {
      "inputs": [
        {
          "internalType": "string",
          "name": "serverHash",
          "type": "string"
        }
      ],
      "name": "setServer",
      "outputs": [
        {
          "internalType": "bool",
          "name": "",
          "type": "bool"
        }
      ],
      "stateMutability": "nonpayable",
      "type": "function"
    },
    {
      "inputs": [],
      "name": "getServer",
      "outputs": [
        {
          "internalType": "string",
          "name": "",
          "type": "string"
        }
      ],
      "stateMutability": "view",
      "type": "function",
      "constant": true
    },
    {
      "inputs": [
        {
          "internalType": "address",
          "name": "a",
          "type": "address"
        }
      ],
      "name": "getWeights",
      "outputs": [
        {
          "internalType": "string",
          "name": "",
          "type": "string"
        }
      ],
      "stateMutability": "view",
      "type": "function",
      "constant": true
    }
  ],
  "bytecode": "0x60806040526000600155600060025534801561001a57600080fd5b50600060028190555060006001819055506109398061003a6000396000f3fe608060405234801561001057600080fd5b506004361061004c5760003560e01c8063089587cd146100515780632a58e2701461006f5780632ac50af01461008b5780638ad6ad42146100bb575b600080fd5b6100596100eb565b604051610066919061034a565b60405180910390f35b61008960048036038101906100849190610513565b61017d565b005b6100a560048036038101906100a0919061056f565b6101ce565b6040516100b2919061034a565b60405180910390f35b6100d560048036038101906100d0919061059c565b61029f565b6040516100e29190610600565b60405180910390f35b6060600080546100fa9061064a565b80601f01602080910402602001604051908101604052809291908181526020018280546101269061064a565b80156101735780601f1061014857610100808354040283529160200191610173565b820191906000526020600020905b81548152906001019060200180831161015657829003601f168201915b5050505050905090565b80600360008473ffffffffffffffffffffffffffffffffffffffff1673ffffffffffffffffffffffffffffffffffffffff16815260200190815260200160002090816101c99190610831565b505050565b6060600360008373ffffffffffffffffffffffffffffffffffffffff1673ffffffffffffffffffffffffffffffffffffffff168152602001908152602001600020805461021a9061064a565b80601f01602080910402602001604051908101604052809291908181526020018280546102469061064a565b80156102935780601f1061026857610100808354040283529160200191610293565b820191906000526020600020905b81548152906001019060200180831161027657829003601f168201915b50505050509050919050565b600081600090816102b09190610831565b5060019050919050565b600081519050919050565b600082825260208201905092915050565b60005b838110156102f45780820151818401526020810190506102d9565b60008484015250505050565b6000601f19601f8301169050919050565b600061031c826102ba565b61032681856102c5565b93506103368185602086016102d6565b61033f81610300565b840191505092915050565b600060208201905081810360008301526103648184610311565b905092915050565b6000604051905090565b600080fd5b600080fd5b600073ffffffffffffffffffffffffffffffffffffffff82169050919050565b60006103ab82610380565b9050919050565b6103bb816103a0565b81146103c657600080fd5b50565b6000813590506103d8816103b2565b92915050565b600080fd5b600080fd5b7f4e487b7100000000000000000000000000000000000000000000000000000000600052604160045260246000fd5b61042082610300565b810181811067ffffffffffffffff8211171561043f5761043e6103e8565b5b80604052505050565b600061045261036c565b905061045e8282610417565b919050565b600067ffffffffffffffff82111561047e5761047d6103e8565b5b61048782610300565b9050602081019050919050565b82818337600083830152505050565b60006104b66104b184610463565b610448565b9050828152602081018484840111156104d2576104d16103e3565b5b6104dd848285610494565b509392505050565b600082601f8301126104fa576104f96103de565b5b813561050a8482602086016104a3565b91505092915050565b6000806040838503121561052a57610529610376565b5b6000610538858286016103c9565b925050602083013567ffffffffffffffff8111156105595761055861037b565b5b610565858286016104e5565b9150509250929050565b60006020828403121561058557610584610376565b5b6000610593848285016103c9565b91505092915050565b6000602082840312156105b2576105b1610376565b5b600082013567ffffffffffffffff8111156105d0576105cf61037b565b5b6105dc848285016104e5565b91505092915050565b60008115159050919050565b6105fa816105e5565b82525050565b600060208201905061061560008301846105f1565b92915050565b7f4e487b7100000000000000000000000000000000000000000000000000000000600052602260045260246000fd5b6000600282049050600182168061066257607f821691505b6020821081036106755761067461061b565b5b50919050565b60008190508160005260206000209050919050565b60006020601f8301049050919050565b600082821b905092915050565b6000600883026106dd7fffffffffffffffffffffffffffffffffffffffffffffffffffffffffffffffff826106a0565b6106e786836106a0565b95508019841693508086168417925050509392505050565b6000819050919050565b6000819050919050565b600061072e610729610724846106ff565b610709565b6106ff565b9050919050565b6000819050919050565b61074883610713565b61075c61075482610735565b8484546106ad565b825550505050565b600090565b610771610764565b61077c81848461073f565b505050565b5b818110156107a057610795600082610769565b600181019050610782565b5050565b601f8211156107e5576107b68161067b565b6107bf84610690565b810160208510156107ce578190505b6107e26107da85610690565b830182610781565b50505b505050565b600082821c905092915050565b6000610808600019846008026107ea565b1980831691505092915050565b600061082183836107f7565b9150826002028217905092915050565b61083a826102ba565b67ffffffffffffffff811115610853576108526103e8565b5b61085d825461064a565b6108688282856107a4565b600060209050601f83116001811461089b5760008415610889578287015190505b6108938582610815565b8655506108fb565b601f1984166108a98661067b565b60005b828110156108d1578489015182556001820191506020850194506020810190506108ac565b868310156108ee57848901516108ea601f8916826107f7565b8355505b6001600288020188555050505b50505050505056fea264697066735822122055c09027ddd8f317cc287c148e1e8adcad9f7d609bf386fa9f622a21cde8220564736f6c63430008110033",
  "immutableReferences": {},
  "source": "// SPDX-License-Identifier: MIT\r\npragma solidity >=0.4.22 <0.9.0;\r\npragma experimental ABIEncoderV2;\r\n\r\nimport \"./flockie.sol\";\r\n\r\ncontract FedLearning{\r\n    string server;\r\n    uint voterCount = 0;\r\n    uint clientCount = 0;\r\n    mapping(address => string) clientWeights;\r\n\r\n    constructor() {\r\n        // Initilizing default values\r\n        clientCount = 0;\r\n        voterCount = 0;\r\n    }\r\n\r\n    function sendWeights(address x, string memory y) public {\r\n        clientWeights[x] = y;\r\n    }\r\n\r\n    function setServer(string memory serverHash) public returns(bool){\r\n        server = serverHash;\r\n        return true;\r\n    }\r\n\r\n\r\n    function getServer() public view returns(string memory){\r\n        return server;\r\n    }\r\n\r\n    function getWeights(address a) public view returns(string memory){\r\n        // assert(msg.sender == a);\r\n        return clientWeights[a];\r\n    }    \r\n\r\n    // function accuracyChecker(string memory z, uint acc) public returns (bool){\r\n    //     if(acc > 8000000){\r\n    //         server = z;\r\n    //         return true;\r\n    //     }\r\n    //     return false;\r\n    // }    \r\n\r\n\r\n}",
  "sourcePath": "D:\\Study\\Thesis 4200\\implementation\\FedBlockchain\\contracts\\fedLearning.sol",
  "compiler": {
    "name": "solc",
    "version": "0.8.17+commit.8df45f5f.Emscripten.clang"
  },
  "schemaVersion": "3.4.16",
  "updatedAt": "2023-10-31T15:29:23.561Z",
  "networkType": "ethereum",
  "devdoc": {
    "kind": "dev",
    "methods": {},
    "version": 1
  },
  "userdoc": {
    "kind": "user",
    "methods": {},
    "version": 1
  }
}